{
  "_format": "hh3-artifact-1",
  "contractName": "AegisVault",
  "sourceName": "contracts/AegisVault.sol",
  "abi": [
    {
      "anonymous": false,
      "inputs": [
        {
          "indexed": true,
          "internalType": "uint256",
          "name": "vaultId",
          "type": "uint256"
        },
        {
          "indexed": false,
          "internalType": "uint256",
          "name": "timestamp",
          "type": "uint256"
        }
      ],
      "name": "PingExecuted",
      "type": "event"
    },
    {
      "anonymous": false,
      "inputs": [
        {
          "indexed": true,
          "internalType": "uint256",
          "name": "vaultId",
          "type": "uint256"
        }
      ],
      "name": "VaultCidUpdated",
      "type": "event"
    },
    {
      "anonymous": false,
      "inputs": [
        {
          "indexed": true,
          "internalType": "uint256",
          "name": "vaultId",
          "type": "uint256"
        },
        {
          "indexed": true,
          "internalType": "address",
          "name": "heir",
          "type": "address"
        }
      ],
      "name": "VaultClaimed",
      "type": "event"
    },
    {
      "anonymous": false,
      "inputs": [
        {
          "indexed": true,
          "internalType": "uint256",
          "name": "vaultId",
          "type": "uint256"
        },
        {
          "indexed": true,
          "internalType": "address",
          "name": "owner",
          "type": "address"
        },
        {
          "indexed": true,
          "internalType": "address",
          "name": "heir",
          "type": "address"
        }
      ],
      "name": "VaultCreated",
      "type": "event"
    },
    {
      "anonymous": false,
      "inputs": [
        {
          "indexed": true,
          "internalType": "uint256",
          "name": "vaultId",
          "type": "uint256"
        },
        {
          "indexed": true,
          "internalType": "address",
          "name": "oldHeir",
          "type": "address"
        },
        {
          "indexed": true,
          "internalType": "address",
          "name": "newHeir",
          "type": "address"
        }
      ],
      "name": "VaultHeirUpdated",
      "type": "event"
    },
    {
      "anonymous": false,
      "inputs": [
        {
          "indexed": true,
          "internalType": "uint256",
          "name": "vaultId",
          "type": "uint256"
        }
      ],
      "name": "VaultLocked",
      "type": "event"
    },
    {
      "anonymous": false,
      "inputs": [
        {
          "indexed": true,
          "internalType": "uint256",
          "name": "vaultId",
          "type": "uint256"
        }
      ],
      "name": "VaultRevoked",
      "type": "event"
    },
    {
      "inputs": [
        {
          "internalType": "uint256",
          "name": "vaultId",
          "type": "uint256"
        }
      ],
      "name": "claimVault",
      "outputs": [],
      "stateMutability": "nonpayable",
      "type": "function"
    },
    {
      "inputs": [
        {
          "internalType": "address",
          "name": "heir",
          "type": "address"
        },
        {
          "internalType": "string",
          "name": "ipfsCid",
          "type": "string"
        },
        {
          "internalType": "uint256",
          "name": "inactivityDelay",
          "type": "uint256"
        }
      ],
      "name": "createVault",
      "outputs": [
        {
          "internalType": "uint256",
          "name": "",
          "type": "uint256"
        }
      ],
      "stateMutability": "nonpayable",
      "type": "function"
    },
    {
      "inputs": [
        {
          "internalType": "address",
          "name": "heir",
          "type": "address"
        }
      ],
      "name": "getHeirVaults",
      "outputs": [
        {
          "internalType": "uint256[]",
          "name": "",
          "type": "uint256[]"
        }
      ],
      "stateMutability": "view",
      "type": "function"
    },
    {
      "inputs": [
        {
          "internalType": "address",
          "name": "owner",
          "type": "address"
        }
      ],
      "name": "getOwnerVaults",
      "outputs": [
        {
          "internalType": "uint256[]",
          "name": "",
          "type": "uint256[]"
        }
      ],
      "stateMutability": "view",
      "type": "function"
    },
    {
      "inputs": [
        {
          "internalType": "uint256",
          "name": "vaultId",
          "type": "uint256"
        }
      ],
      "name": "getVault",
      "outputs": [
        {
          "components": [
            {
              "internalType": "uint256",
              "name": "id",
              "type": "uint256"
            },
            {
              "internalType": "address",
              "name": "owner",
              "type": "address"
            },
            {
              "internalType": "address",
              "name": "heir",
              "type": "address"
            },
            {
              "internalType": "string",
              "name": "ipfsCid",
              "type": "string"
            },
            {
              "internalType": "uint256",
              "name": "lastPing",
              "type": "uint256"
            },
            {
              "internalType": "uint256",
              "name": "inactivityDelay",
              "type": "uint256"
            },
            {
              "internalType": "bool",
              "name": "revoked",
              "type": "bool"
            },
            {
              "internalType": "bool",
              "name": "claimed",
              "type": "bool"
            },
            {
              "internalType": "bool",
              "name": "locked",
              "type": "bool"
            }
          ],
          "internalType": "struct AegisVault.Vault",
          "name": "",
          "type": "tuple"
        }
      ],
      "stateMutability": "view",
      "type": "function"
    },
    {
      "inputs": [],
      "name": "getVaultCount",
      "outputs": [
        {
          "internalType": "uint256",
          "name": "",
          "type": "uint256"
        }
      ],
      "stateMutability": "view",
      "type": "function"
    },
    {
      "inputs": [
        {
          "internalType": "uint256",
          "name": "vaultId",
          "type": "uint256"
        }
      ],
      "name": "isClaimable",
      "outputs": [
        {
          "internalType": "bool",
          "name": "",
          "type": "bool"
        }
      ],
      "stateMutability": "view",
      "type": "function"
    },
    {
      "inputs": [
        {
          "internalType": "uint256",
          "name": "vaultId",
          "type": "uint256"
        }
      ],
      "name": "lockVault",
      "outputs": [],
      "stateMutability": "nonpayable",
      "type": "function"
    },
    {
      "inputs": [
        {
          "internalType": "uint256",
          "name": "vaultId",
          "type": "uint256"
        }
      ],
      "name": "ping",
      "outputs": [],
      "stateMutability": "nonpayable",
      "type": "function"
    },
    {
      "inputs": [
        {
          "internalType": "uint256",
          "name": "vaultId",
          "type": "uint256"
        }
      ],
      "name": "revokeVault",
      "outputs": [],
      "stateMutability": "nonpayable",
      "type": "function"
    },
    {
      "inputs": [
        {
          "internalType": "uint256",
          "name": "vaultId",
          "type": "uint256"
        },
        {
          "internalType": "string",
          "name": "newIpfsCid",
          "type": "string"
        }
      ],
      "name": "updateCid",
      "outputs": [],
      "stateMutability": "nonpayable",
      "type": "function"
    },
    {
      "inputs": [
        {
          "internalType": "uint256",
          "name": "vaultId",
          "type": "uint256"
        },
        {
          "internalType": "address",
          "name": "newHeir",
          "type": "address"
        },
        {
          "internalType": "string",
          "name": "newIpfsCid",
          "type": "string"
        }
      ],
      "name": "updateHeir",
      "outputs": [],
      "stateMutability": "nonpayable",
      "type": "function"
    }
  ],
  "bytecode": "0x6080604052348015600e575f5ffd5b506119348061001c5f395ff3fe608060405234801561000f575f5ffd5b50600436106100b1575f3560e01c8063a3c1c3951161006e578063a3c1c3951461015a578063a41782871461016d578063c794e37514610180578063e04f91de14610193578063e26e9eaf146101a6578063e81e8621146101b9575f5ffd5b80633a0f555d146100b557806374d4e491146100de578063773acdef146100ef57806389610a09146101045780639403b63414610127578063a32ca3e914610147575b5f5ffd5b6100c86100c3366004611317565b6101cc565b6040516100d59190611337565b60405180910390f35b5f545b6040519081526020016100d5565b6101026100fd366004611379565b610235565b005b610117610112366004611379565b610375565b60405190151581526020016100d5565b61013a610135366004611379565b610506565b6040516100d591906113be565b6100c8610155366004611317565b6106aa565b6101026101683660046114aa565b610711565b61010261017b366004611379565b6109c9565b6100e161018e366004611500565b610bce565b6101026101a1366004611556565b610ea2565b6101026101b4366004611379565b610feb565b6101026101c7366004611379565b611115565b6001600160a01b0381165f9081526003602090815260409182902080548351818402810184019094528084526060939283018282801561022957602002820191905f5260205f20905b815481526020019060010190808311610215575b50505050509050919050565b5f8181526002602052604090206001015481906001600160a01b03166102765760405162461bcd60e51b815260040161026d9061159e565b60405180910390fd5b5f8281526002602052604090206001015482906001600160a01b031633146102b05760405162461bcd60e51b815260040161026d906115cc565b5f83815260026020526040902060060154839060ff16156102e35760405162461bcd60e51b815260040161026d906115f6565b5f848152600260205260409020600601548490610100900460ff161561031b5760405162461bcd60e51b815260040161026d9061161d565b4260025f8781526020019081526020015f2060040181905550847fcd83b256b4ce7b4d40040db51234dc7241b5a7a0d6bd7c81c8babde78820eaad4260405161036691815260200190565b60405180910390a25050505050565b5f8181526002602052604081206001015482906001600160a01b03166103ad5760405162461bcd60e51b815260040161026d9061159e565b5f8381526002602081815260408084208151610120810183528154815260018201546001600160a01b039081169482019490945293810154909216908301526003810180546060840191906104019061164c565b80601f016020809104026020016040519081016040528092919081815260200182805461042d9061164c565b80156104785780601f1061044f57610100808354040283529160200191610478565b820191905f5260205f20905b81548152906001019060200180831161045b57829003601f168201915b5050509183525050600482015460208201526005820154604082015260069091015460ff8082161515606084015261010082048116151560808401526201000090910416151560a09091015260c0810151909150806104d857508060e001515b156104e6575f925050610500565b8060a0015181608001516104fa9190611692565b42119250505b50919050565b60408051610120810182525f808252602082018190529181018290526060808201526080810182905260a0810182905260c0810182905260e081018290526101008101919091525f8281526002602052604090206001015482906001600160a01b03166105855760405162461bcd60e51b815260040161026d9061159e565b5f838152600260208181526040928390208351610120810185528154815260018201546001600160a01b039081169382019390935292810154909116928201929092526003820180549192916060840191906105e09061164c565b80601f016020809104026020016040519081016040528092919081815260200182805461060c9061164c565b80156106575780601f1061062e57610100808354040283529160200191610657565b820191905f5260205f20905b81548152906001019060200180831161063a57829003601f168201915b5050509183525050600482015460208201526005820154604082015260069091015460ff8082161515606084015261010082048116151560808401526201000090910416151560a0909101529392505050565b6001600160a01b0381165f9081526004602090815260409182902080548351818402810184019094528084526060939283018282801561022957602002820191905f5260205f20908154815260200190600101908083116102155750505050509050919050565b5f8481526002602052604090206001015484906001600160a01b03166107495760405162461bcd60e51b815260040161026d9061159e565b5f8581526002602052604090206001015485906001600160a01b031633146107835760405162461bcd60e51b815260040161026d906115cc565b5f86815260026020526040902060060154869060ff16156107b65760405162461bcd60e51b815260040161026d906115f6565b5f878152600260205260409020600601548790610100900460ff16156107ee5760405162461bcd60e51b815260040161026d9061161d565b5f888152600260205260409020600681015462010000900460ff16156108455760405162461bcd60e51b815260206004820152600c60248201526b15985d5b1d081b1bd8dad95960a21b604482015260640161026d565b6001600160a01b03881661088a5760405162461bcd60e51b815260206004820152600c60248201526b24b73b30b634b2103432b4b960a11b604482015260640161026d565b60018101546001600160a01b03908116908916036108e15760405162461bcd60e51b81526020600482015260146024820152732432b4b91031b0b73737ba1031329037bbb732b960611b604482015260640161026d565b856108fe5760405162461bcd60e51b815260040161026d906116ab565b6002810180546001600160a01b038a81166001600160a01b0319831617909255166003820161092e888a83611736565b50610939818b61123b565b6001600160a01b03808a165f81815260046020908152604080832080546001810182559084529183209091018e90555191928416918d917f54cdc017c3acc922907bbc79adf83212b6c8f2639a51be8ead502f42284238e191a46040518a907f71aa4f8539e89bd46005f99f2a6610f5391b47c2dab1f1194c31c700fda6876b905f90a250505050505050505050565b60015460ff1615610a115760405162461bcd60e51b81526020600482015260126024820152711499595b9d1c985b98de48189b1bd8dad95960721b604482015260640161026d565b6001805460ff1916811781555f828152600260205260409020015481906001600160a01b0316610a535760405162461bcd60e51b815260040161026d9061159e565b5f828152600260208190526040909120015482906001600160a01b03163314610ab05760405162461bcd60e51b815260206004820152600f60248201526e27b7363c903b30bab63a103432b4b960891b604482015260640161026d565b5f83815260026020526040902060060154839060ff1615610ae35760405162461bcd60e51b815260040161026d906115f6565b5f848152600260205260409020600601548490610100900460ff1615610b1b5760405162461bcd60e51b815260040161026d9061161d565b5f85815260026020526040902060058101546004820154610b3c9190611692565b4211610b7f5760405162461bcd60e51b81526020600482015260126024820152714f776e6572207374696c6c2061637469766560701b604482015260640161026d565b60068101805461ff001916610100179055604051339087907ff0399eaf9d5ec3c6d34ea5f7bc676ff258c75f3c08da9f2eaaf8e36b291386cd905f90a350506001805460ff1916905550505050565b5f6001600160a01b038516610c145760405162461bcd60e51b815260206004820152600c60248201526b24b73b30b634b2103432b4b960a11b604482015260640161026d565b336001600160a01b03861603610c635760405162461bcd60e51b81526020600482015260146024820152732432b4b91031b0b73737ba1031329037bbb732b960611b604482015260640161026d565b82610c805760405162461bcd60e51b815260040161026d906116ab565b5f8211610cc05760405162461bcd60e51b815260206004820152600e60248201526d11195b185e481c995c5d5a5c995960921b604482015260640161026d565b5f80549080610cce836117f0565b91905055505f5f549050604051806101200160405280828152602001336001600160a01b03168152602001876001600160a01b0316815260200186868080601f0160208091040260200160405190810160405280939291908181526020018383808284375f920182905250938552505042602080850191909152604080850189905260608086018590526080860185905260a090950184905286845260028083529381902086518155918601516001830180546001600160a01b03199081166001600160a01b039384161790915591870151948301805490921694169390931790925550908201516003820190610dc59082611808565b50608082015160048281019190915560a0830151600583015560c08301516006909201805460e08501516101009586015161ffff1990921694151561ff001916949094179315159094029290921762ff000019166201000093151593909302929092179055335f818152600360209081526040808320805460018181018355918552838520018790556001600160a01b038c168085529583528184208054918201815584529183209091018590555184917fa8596cc4a052ecc7656e9ca0fb7a10472573699e3aa34ac5659bc37c1b0a44fc91a495945050505050565b5f8381526002602052604090206001015483906001600160a01b0316610eda5760405162461bcd60e51b815260040161026d9061159e565b5f8481526002602052604090206001015484906001600160a01b03163314610f145760405162461bcd60e51b815260040161026d906115cc565b5f85815260026020526040902060060154859060ff1615610f475760405162461bcd60e51b815260040161026d906115f6565b5f868152600260205260409020600601548690610100900460ff1615610f7f5760405162461bcd60e51b815260040161026d9061161d565b84610f9c5760405162461bcd60e51b815260040161026d906116ab565b5f878152600260205260409020600301610fb7868883611736565b5060405187907f71aa4f8539e89bd46005f99f2a6610f5391b47c2dab1f1194c31c700fda6876b905f90a250505050505050565b5f8181526002602052604090206001015481906001600160a01b03166110235760405162461bcd60e51b815260040161026d9061159e565b5f8281526002602052604090206001015482906001600160a01b0316331461105d5760405162461bcd60e51b815260040161026d906115cc565b5f83815260026020526040902060060154839060ff16156110905760405162461bcd60e51b815260040161026d906115f6565b5f848152600260205260409020600601548490610100900460ff16156110c85760405162461bcd60e51b815260040161026d9061161d565b5f85815260026020526040808220600601805462ff00001916620100001790555186917f38499ee619cbb9489cb9260c62480a9eda403b776edd7870e8bf49b487e2999091a25050505050565b5f8181526002602052604090206001015481906001600160a01b031661114d5760405162461bcd60e51b815260040161026d9061159e565b5f8281526002602052604090206001015482906001600160a01b031633146111875760405162461bcd60e51b815260040161026d906115cc565b5f83815260026020526040902060060154839060ff16156111ba5760405162461bcd60e51b815260040161026d906115f6565b5f848152600260205260409020600601548490610100900460ff16156111f25760405162461bcd60e51b815260040161026d9061161d565b5f85815260026020526040808220600601805460ff191660011790555186917fb14506f2903e2c599b638976158db3c7fc03306a02fc3ebfe33708d1068d184291a25050505050565b6001600160a01b0382165f908152600460205260408120905b81548110156112f65782828281548110611270576112706118c3565b905f5260205f200154036112ee578154829061128e906001906118d7565b8154811061129e5761129e6118c3565b905f5260205f2001548282815481106112b9576112b96118c3565b905f5260205f200181905550818054806112d5576112d56118ea565b600190038181905f5260205f20015f9055905550505050565b600101611254565b50505050565b80356001600160a01b0381168114611312575f5ffd5b919050565b5f60208284031215611327575f5ffd5b611330826112fc565b9392505050565b602080825282518282018190525f918401906040840190835b8181101561136e578351835260209384019390920191600101611350565b509095945050505050565b5f60208284031215611389575f5ffd5b5035919050565b5f81518084528060208401602086015e5f602082860101526020601f19601f83011685010191505092915050565b60208152815160208201525f60208301516113e460408401826001600160a01b03169052565b5060408301516001600160a01b03811660608401525060608301516101206080840152611415610140840182611390565b9050608084015160a084015260a084015160c084015260c084015161143e60e085018215159052565b5060e084015180151561010085015250610100840151801515610120850152509392505050565b5f5f83601f840112611475575f5ffd5b50813567ffffffffffffffff81111561148c575f5ffd5b6020830191508360208285010111156114a3575f5ffd5b9250929050565b5f5f5f5f606085870312156114bd575f5ffd5b843593506114cd602086016112fc565b9250604085013567ffffffffffffffff8111156114e8575f5ffd5b6114f487828801611465565b95989497509550505050565b5f5f5f5f60608587031215611513575f5ffd5b61151c856112fc565b9350602085013567ffffffffffffffff811115611537575f5ffd5b61154387828801611465565b9598909750949560400135949350505050565b5f5f5f60408486031215611568575f5ffd5b83359250602084013567ffffffffffffffff811115611585575f5ffd5b61159186828701611465565b9497909650939450505050565b60208082526014908201527315985d5b1d08191bd95cc81b9bdd08195e1a5cdd60621b604082015260600190565b60208082526010908201526f27b7363c903b30bab63a1037bbb732b960811b604082015260600190565b6020808252600d908201526c15985d5b1d081c995d9bdad959609a1b604082015260600190565b60208082526015908201527415985d5b1d08185b1c9958591e4818db185a5b5959605a1b604082015260600190565b600181811c9082168061166057607f821691505b60208210810361050057634e487b7160e01b5f52602260045260245ffd5b634e487b7160e01b5f52601160045260245ffd5b808201808211156116a5576116a561167e565b92915050565b60208082526011908201527012541194c810d251081c995c5d5a5c9959607a1b604082015260600190565b634e487b7160e01b5f52604160045260245ffd5b601f82111561173157805f5260205f20601f840160051c8101602085101561170f5750805b601f840160051c820191505b8181101561172e575f815560010161171b565b50505b505050565b67ffffffffffffffff83111561174e5761174e6116d6565b6117628361175c835461164c565b836116ea565b5f601f841160018114611793575f851561177c5750838201355b5f19600387901b1c1916600186901b17835561172e565b5f83815260208120601f198716915b828110156117c257868501358255602094850194600190920191016117a2565b50868210156117de575f1960f88860031b161c19848701351681555b505060018560011b0183555050505050565b5f600182016118015761180161167e565b5060010190565b815167ffffffffffffffff811115611822576118226116d6565b61183681611830845461164c565b846116ea565b6020601f821160018114611868575f83156118515750848201515b5f19600385901b1c1916600184901b17845561172e565b5f84815260208120601f198516915b828110156118975787850151825560209485019460019092019101611877565b50848210156118b457868401515f19600387901b60f8161c191681555b50505050600190811b01905550565b634e487b7160e01b5f52603260045260245ffd5b818103818111156116a5576116a561167e565b634e487b7160e01b5f52603160045260245ffdfea264697066735822122004d3e7c05ad8738d08a6b6435c851e0635d86de228724b4ef63e9459557d7fe464736f6c634300081c0033",
  "linkReferences": {},
  "deployedLinkReferences": {},
  "immutableReferences": {},
  "inputSourceName": "project/contracts/AegisVault.sol",
  "buildInfoId": "solc-0_8_28-c092196370c42824902ceb92c6485b958f67d0cc"
}