{
  "_format": "hh3-artifact-1",
  "contractName": "LearningVault",
  "sourceName": "contracts/LearningVault.sol",
  "abi": [
    {
      "inputs": [],
      "stateMutability": "nonpayable",
      "type": "constructor"
    },
    {
      "inputs": [],
      "name": "getVault",
      "outputs": [
        {
          "internalType": "address",
          "name": "",
          "type": "address"
        },
        {
          "internalType": "string",
          "name": "",
          "type": "string"
        }
      ],
      "stateMutability": "view",
      "type": "function"
    },
    {
      "inputs": [],
      "name": "heir",
      "outputs": [
        {
          "internalType": "address",
          "name": "",
          "type": "address"
        }
      ],
      "stateMutability": "view",
      "type": "function"
    },
    {
      "inputs": [],
      "name": "ipfsCid",
      "outputs": [
        {
          "internalType": "string",
          "name": "",
          "type": "string"
        }
      ],
      "stateMutability": "view",
      "type": "function"
    },
    {
      "inputs": [],
      "name": "owner",
      "outputs": [
        {
          "internalType": "address",
          "name": "",
          "type": "address"
        }
      ],
      "stateMutability": "view",
      "type": "function"
    },
    {
      "inputs": [
        {
          "internalType": "address",
          "name": "_heir",
          "type": "address"
        },
        {
          "internalType": "string",
          "name": "_ifsCid",
          "type": "string"
        }
      ],
      "name": "setVault",
      "outputs": [],
      "stateMutability": "nonpayable",
      "type": "function"
    }
  ],
  "bytecode": "0x6080604052348015600e575f5ffd5b505f80546001600160a01b031916331790556105c88061002d5f395ff3fe608060405234801561000f575f5ffd5b5060043610610055575f3560e01c80637b914674146100595780638d928af8146100775780638da5cb5b1461008d57806391f2ebb8146100b7578063c265ec33146100ca575b5f5ffd5b6100616100df565b60405161006e9190610371565b60405180910390f35b61007f61016b565b60405161006e92919061038a565b5f5461009f906001600160a01b031681565b6040516001600160a01b03909116815260200161006e565b60015461009f906001600160a01b031681565b6100dd6100d83660046103b5565b610214565b005b600280546100ec90610440565b80601f016020809104026020016040519081016040528092919081815260200182805461011890610440565b80156101635780601f1061013a57610100808354040283529160200191610163565b820191905f5260205f20905b81548152906001019060200180831161014657829003601f168201915b505050505081565b600154600280545f926060926001600160a01b0390911691819061018e90610440565b80601f01602080910402602001604051908101604052809291908181526020018280546101ba90610440565b80156102055780601f106101dc57610100808354040283529160200191610205565b820191905f5260205f20905b8154815290600101906020018083116101e857829003601f168201915b50505050509050915091509091565b5f546001600160a01b031633146102725760405162461bcd60e51b815260206004820152601c60248201527f4f6e6c79206f776e65722063616e2073657420746865207661756c740000000060448201526064015b60405180910390fd5b6001600160a01b0383166102c85760405162461bcd60e51b815260206004820152601b60248201527f4865697220616464726573732063616e6e6f74206265207a65726f00000000006044820152606401610269565b806103155760405162461bcd60e51b815260206004820152601860248201527f49504653204349442063616e6e6f7420626520656d70747900000000000000006044820152606401610269565b600180546001600160a01b0319166001600160a01b038516179055600261033d8284836104d8565b50505050565b5f81518084528060208401602086015e5f602082860101526020601f19601f83011685010191505092915050565b602081525f6103836020830184610343565b9392505050565b6001600160a01b03831681526040602082018190525f906103ad90830184610343565b949350505050565b5f5f5f604084860312156103c7575f5ffd5b83356001600160a01b03811681146103dd575f5ffd5b9250602084013567ffffffffffffffff8111156103f8575f5ffd5b8401601f81018613610408575f5ffd5b803567ffffffffffffffff81111561041e575f5ffd5b86602082840101111561042f575f5ffd5b939660209190910195509293505050565b600181811c9082168061045457607f821691505b60208210810361047257634e487b7160e01b5f52602260045260245ffd5b50919050565b634e487b7160e01b5f52604160045260245ffd5b601f8211156104d357805f5260205f20601f840160051c810160208510156104b15750805b601f840160051c820191505b818110156104d0575f81556001016104bd565b50505b505050565b67ffffffffffffffff8311156104f0576104f0610478565b610504836104fe8354610440565b8361048c565b5f601f841160018114610535575f851561051e5750838201355b5f19600387901b1c1916600186901b1783556104d0565b5f83815260208120601f198716915b828110156105645786850135825560209485019460019092019101610544565b5086821015610580575f1960f88860031b161c19848701351681555b505060018560011b018355505050505056fea2646970667358221220a57b3e3e2d544b1eef8ed2e01b1fe385d0452eb2d052b04fc6ab2e3bea22b01964736f6c634300081c0033",
  "linkReferences": {},
  "deployedLinkReferences": {},
  "immutableReferences": {},
  "inputSourceName": "project/contracts/LearningVault.sol",
  "buildInfoId": "solc-0_8_28-9ccd8d6617756f4d5f4a25d7a4f412a4b95b0a1c"
}